:020000040800F2
:1000000000500020390B0008710A0008770A000828
:100010007D0A0008830A0008890A00080000000021
:100020000000000000000000000000008F0A00082F
:100030009B0A000800000000A70A0008B30A000895
:10004000810B0008810B0008810B0008810B000860
:10005000810B0008810B0008810B0008810B000850
:10006000810B0008810B0008810B0008810B000840
:10007000810B0008810B0008810B0008810B000830
:10008000810B0008810B0008810B0008810B000820
:10009000810B0008810B0008810B0008810B000810
:1000A000810B0008810B0008810B0008810B000800
:1000B000810B0008810B0008810B0008810B0008F0
:1000C000810B0008810B0008810B0008810B0008E0
:1000D000810B0008810B0008810B0008810B0008D0
:1000E000810B0008810B0008810B00080000000054
:1000F0000000000000000000000000000000000000
:0C01000000000000000000005FF808F1A3
:10010C0010B5054C237833B9044B13B10448AFF345
:10011C0000800123237010BDD800002000000000D7
:10012C001C44000808B5034B1BB103490348AFF34B
:10013C00008008BD00000000DC0000201C4400080A
:10014C00034613F8012B002AFBD1181A013870470B
:10015C0080F0004002E000BF81F0004142001FBF70
:10016C005FEA410392EA030F7FEA226C7FEA236C79
:10017C006AD04FEA1262D2EB1363C1BFD21841406E
:10018C0048404140B8BF5B42192B88BF704710F004
:10019C00004F40F4000020F07F4018BF404211F0A7
:1001AC00004F41F4000121F07F4118BF494292EA0F
:1001BC00030F3FD0A2F1010241FA03FC10EB0C003B
:1001CC00C3F1200301FA03F100F0004302D54942C8
:1001DC0060EB4000B0F5000F13D3B0F1807F06D375
:1001EC0040084FEA310102F10102FE2A51D2B1F16D
:1001FC00004F40EBC25008BF20F0010040EA030062
:10020C007047490040EB0000013A28BFB0F5000FE1
:10021C00EDD2B0FA80FCACF1080CB2EB0C0200FA97
:10022C000CF0AABF00EBC25052421843BCBFD040E6
:10023C001843704792F0000F81F4000106BF80F460
:10024C0000000132013BB5E74FEA41037FEA226C23
:10025C0018BF7FEA236C21D092EA030F04D092F0EE
:10026C00000F08BF0846704790EA010F1CBF002022
:10027C00704712F07F4F04D1400028BF40F000407F
:10028C00704712F100723CBF00F50000704700F09F
:10029C00004343F0FE4040F4000070477FEA2262C6
:1002AC0016BF08467FEA23630146420206BF5FEA97
:1002BC00412390EA010F40F4800070474FF0000397
:1002CC0004E000BF10F0004348BF40425FEA000C5E
:1002DC0008BF704743F0964301464FF000001CE006
:1002EC0050EA010208BF70474FF000030AE000BF5C
:1002FC0050EA010208BF704711F0004302D540429A
:10030C0061EB41015FEA010C02BF8446014600200B
:10031C0043F0B64308BFA3F18053A3F50003BCFA26
:10032C008CF2083AA3EBC25310DB01FA02FC6344D3
:10033C0000FA02FCC2F12002BCF1004F20FA02F2DA
:10034C0043EB020008BF20F00100704702F12002CD
:10035C0001FA02FCC2F1200250EA4C0021FA02F22E
:10036C0043EB020008BF20EADC7070474FF0FF0C33
:10037C001CEAD0521EBF1CEAD15392EA0C0F93EA2E
:10038C000C0F6FD01A4480EA010C400218BF5FEAD0
:10039C0041211ED04FF0006343EA501043EA511143
:1003AC00A0FB01310CF00040B1F5000F3EBF49003D
:1003BC0041EAD3715B0040EA010062F17F02FD2A41
:1003CC001DD8B3F1004F40EBC25008BF20F0010024
:1003DC00704790F0000F0CF0004C08BF49024CEA3B
:1003EC00502040EA51207F3AC2BFD2F1FF0340EACD
:1003FC00C250704740F400004FF00003013A5DDC3E
:10040C0012F1190FDCBF00F000407047C2F100027E
:10041C00410021FA02F1C2F1200200FA02FC5FEA6B
:10042C00310040F1000053EA4C0308BF20EADC70B5
:10043C00704792F0000F00F0004C02BF400010F427
:10044C00000F013AF9D040EA0C0093F0000F01F0D4
:10045C00004C02BF490011F4000F013BF9D041EAF6
:10046C000C018FE70CEAD15392EA0C0F18BF93EAF8
:10047C000C0F0AD030F0004C18BF31F0004CD8D122
:10048C0080EA010000F00040704790F0000F17BFA9
:10049C0090F0004F084691F0000F91F0004F14D0EF
:1004AC0092EA0C0F01D142020FD193EA0C0F03D147
:1004BC004B0218BF084608D180EA010000F000404A
:1004CC0040F0FE4040F40000704740F0FE4040F425
:1004DC00400070474FF0FF0C1CEAD0521EBF1CEAC4
:1004EC00D15392EA0C0F93EA0C0F69D0A2EB0302E2
:1004FC0080EA010C49024FEA402037D04FF080537C
:10050C0043EA111143EA10130CF000408B4238BF40
:10051C005B0042F17D024FF4000C8B4224BF5B1A4E
:10052C0040EA0C00B3EB510F24BFA3EB510340EA9C
:10053C005C00B3EB910F24BFA3EB910340EA9C004A
:10054C00B3EBD10F24BFA3EBD10340EADC001B01BA
:10055C0018BF5FEA1C1CE0D1FD2A3FF650AF8B425E
:10056C0040EBC25008BF20F0010070470CF0004C6B
:10057C004CEA50207F32C2BFD2F1FF0340EAC25096
:10058C00704740F400004FF00003013A37E792F057
:10059C00000F00F0004C02BF400010F4000F013AB5
:1005AC00F9D040EA0C0093F0000F01F0004C02BFB0
:1005BC00490011F4000F013BF9D041EA0C0195E719
:1005CC000CEAD15392EA0C0F08D142027FF47DAFB2
:1005DC0093EA0C0F7FF470AF084676E793EA0C0FA2
:1005EC0004D14B023FF44CAF08466EE730F0004CA0
:1005FC0018BF31F0004CCAD130F000427FF45CAF30
:10060C0031F000437FF43CAF5FE700BF4FEA40029C
:10061C00B2F1FE4F0FD34FF09E03B3EB12620DD924
:10062C004FEA002343F0004310F0004F23FA02F08E
:10063C0018BF404270474FF00000704712F1610F35
:10064C0001D1420205D110F0004008BF6FF000400C
:10065C0070474FF00000704780B586B002AF03467C
:10066C003960FB711346BB71FB799BB25B0099B28D
:10067C00BB799BB2642200923A68074801F03CFBBC
:10068C000346FB73FB7B002B0CBF01230023DBB267
:10069C0018461037BD4680BDF400002080B586B0EA
:1006AC0002AF03463960FB711346BB71FB799BB2F9
:1006BC005B0099B2BB799BB2642200923A680748FE
:1006CC0001F01CFA0346FB73FB7B002B0CBF0123D0
:1006DC000023DBB218461037BD4680BDF400002065
:1006EC0080B588B004AF0346FB71FB799BB25B000D
:1006FC0099B2642302930123019307F10E03009333
:10070C0001237522104801F05DFEBB7B682B17D1CD
:10071C0000237B73642302930123019307F10D03E0
:10072C00009301236B22D021074801F051FD0346B1
:10073C00FB73FB7B002B01D1012301E00023FFE7BE
:10074C0018461037BD4680BDF400002080B58CB033
:10075C0002AF00F089FD00F077F800F0DFF800F050
:10076C00AFF800220121314800F020FB092300934F
:10077C002F4B002201212D4800F0D3FB40F6B8305E
:10078C0000F0D4FD2B4800F039FC2A4800F042FC64
:10079C00284800F066FC274800F09FFC254800F034
:1007AC00D2FC244800F025FD224B5B6922491846F7
:1007BC00FFF7DCFD03461846FFF728FF03461A46F1
:1007CC001E491F4803F072F91A4B5B6A1A49184606
:1007DC00FFF7CCFD03461846FFF718FF02463B46D1
:1007EC001849184603F062F91548FFF7A9FC0346AF
:1007FC00DBB20093124B002200210C4800F091FB5D
:10080C003B461846FFF79CFC0346DBB23A46009386
:10081C00134600220121054800F083FB4FF4FA70C7
:10082C0000F084FD014800F095FBB1E700000020CA
:10083C0034440008200000200000C8424044000856
:10084C00480100204844000880B590B000AF07F183
:10085C00180328220021184603F048F93B1D0022FA
:10086C001A605A609A60DA601A610223BB61012334
:10087C00BB621023FB6200237B6307F1180318464D
:10088C0002F018FD0346002B01D000F075F80F2381
:10089C007B600023BB600023FB6000233B610023D3
:1008AC007B613B1D0021184602F086FF0346002B9E
:1008BC0001D000F061F800BF4037BD4680BD00009C
:1008CC0080B500AF124B134A1A60114B124A5A6092
:1008DC000F4B00229A600E4B0022DA600C4B4FF447
:1008EC0080421A610A4B00225A61094B00229A611C
:1008FC00074B0022DA61064B00221A62044800F012
:10090C00B9FF0346002B01D000F036F800BF80BDC4
:10091C00F400002000540040A086010080B485B093
:10092C0000AF144B9B69134A43F020039361114BA6
:10093C009B6903F02003FB60FB680E4B9B690D4A1F
:10094C0043F0040393610B4B9B6903F00403BB60FE
:10095C00BB68084B9B69074A43F008039361054B3E
:10096C009B6903F008037B607B6800BF1437BD46AE
:10097C0080BC70470010024080B400AF72B600BF5C
:10098C00FEE7000080B485B000AF154B9B69144A9C
:10099C0043F001039361124B9B6903F00103BB60AD
:1009AC00BB680F4BDB690E4A43F08053D3610C4B91
:1009BC00DB6903F080537B607B680A4B5B68FB60F0
:1009CC00FB6823F0E063FB60FB6843F00073FB60A3
:1009DC00044AFB68536000BF1437BD4680BC7047A7
:1009EC00001002400000014080B588B000AF786074
:1009FC0007F1100300221A605A609A60DA607B6873
:100A0C001B68154A934223D1144B9B69134A43F03C
:100A1C0008039361114B9B6903F00803FB60FB68AF
:100A2C00C0233B6112237B610323FB6107F110039D
:100A3C0019460B4800F082FD084BDB69074A43F46A
:100A4C000013D361054BDB6903F40013BB60BB6877
:100A5C0000BF2037BD4680BD00540040001002404E
:100A6C00000C014080B400AFFEE780B400AFFEE79D
:100A7C0080B400AFFEE780B400AFFEE780B400AFF7
:100A8C00FEE780B400AF00BFBD4680BC704780B4A9
:100A9C0000AF00BFBD4680BC704780B400AF00BF44
:100AAC00BD4680BC704780B500AF00F023FC00BF92
:100ABC0080BD000080B586B000AF7860144A154B3D
:100ACC00D31A7B617B693B61134B1B68002B02D1F2
:100ADC00114B124A1A60104B1A687B6813443A691E
:100AEC009A4207D203F00AF803460C221A604FF020
:100AFC00FF3309E0084B1B68FB60074B1A687B68E7
:100B0C001344054A1360FB6818461837BD4680BD70
:100B1C00005000200004000070010020C0020020E2
:100B2C0080B400AF00BFBD4680BC7047FFF7F8FF34
:100B3C000B480C490C4A002302E0D458C45004332F
:100B4C00C4188C42F9D3094A094C002301E0136004
:100B5C000432A242FBD302F0D7FFFFF7F7FD704738
:100B6C0000000020D8000020B8440008D800002065
:100B7C00C0020020FEE7000080B400AF144BDB681D
:100B8C00134A23F08073D360114BDB68104A43F097
:100B9C008073D3600F4B1B680E4A23F00103136064
:100BAC000C4B1B680B4A43F001031360094B0022EA
:100BBC005A6000BF00BF00BF064B5B68002B01D022
:100BCC00002300E001231846BD4680BC704700BFDF
:100BDC00F0ED00E0001000E080B584B000AF78606C
:100BEC000D4B5B68FB6002F025FF03460B4AA2FB32
:100BFC0003239B0C7A6802FB03F37B6000BF064B5C
:100C0C005A68FB68D21A7B689A42F8D300BF00BFBF
:100C1C001037BD4680BD00BF001000E083DE1B43D3
:100C2C0080B582B000AF0346FB80FB881846FFF707
:100C3C00D3FF00BF0837BD4680BD80B483B000AF82
:100C4C0078600B46FB707B685B68DA687B681B7AA4
:100C5C0019460F238B40DB4319467B685B680A40BF
:100C6C00DA607B685B68DA68FB787968097A8B40B4
:100C7C0019467B685B680A43DA6000BF0C37BD46D7
:100C8C0080BC704780B582B000AF78600B46FB70BB
:100C9C007B6858697B681B8BFA78194600F0D2FD8B
:100CAC0000BF0837BD4680BD80B582B000AF78600C
:100CBC000B46FB707B68D8687B681B8AFA781946F0
:100CCC0000F0C0FD00BF0837BD4680BD80B586B0C2
:100CDC0000AF786007F1080300221A605A609A602E
:100CEC00DA607B681B8BBB600123FB6002237B619A
:100CFC007B685B6907F108021146184600F01EFC80
:100D0C007B681B8ABB607B68DB6807F108021146B5
:100D1C00184600F013FC7B681B7A1A460F2393408D
:100D2C00BB607B685B6807F108021146184600F04F
:100D3C0005FC00BF1837BD4680BD80B582B000AF42
:100D4C0078600B46FB701346BB70FB7819467868CD
:100D5C00FFF798FFBB781B09DBB219467868FFF7E1
:100D6C006CFF01217868FFF79FFF0A20FFF758FFFF
:100D7C0000217868FFF798FF6420FFF751FFBB78DC
:100D8C0019467868FFF759FF01217868FFF78CFF47
:100D9C000A20FFF745FF00217868FFF785FF6420E4
:100DAC00FFF73EFF00BF0837BD4680BD80B584B05D
:100DBC0000AF78600B46FB701346BB70FFF7DCFE90
:100DCC007868FFF783FF7B6800229A767B68402265
:100DDC00DA767B68BA781A77BB784033DAB27B68FC
:100DEC005A7700217868FFF74DFF00217868FFF7EC
:100DFC005BFF4CF25030FFF713FF0023FB7318E03E
:100E0C0003217868FFF719FF01217868FFF74CFF81
:100E1C000A20FFF705FF00217868FFF745FF6420E3
:100E2C00FFF7FEFE41F29410FFF7FAFEFB7B013355
:100E3C00FB73FB7B012BE3D903217868FFF7FDFEE5
:100E4C0001217868FFF730FF0A20FFF7E9FE002147
:100E5C007868FFF729FF6420FFF7E2FE9620FFF782
:100E6C00DFFE02217868FFF7E8FE01217868FFF7C2
:100E7C001BFF0A20FFF7D4FE00217868FFF714FF50
:100E8C006420FFF7CDFE282200217868FFF755FF7C
:100E9C00002300220121786800F06DF8786800F0DA
:100EAC0059F800BF1037BD4680BD80B582B000AF89
:100EBC0078600B46FB701346BB70FB787A68134462
:100ECC009A7EBB781344DBB25BB263F07F035BB2F8
:100EDC00DBB21A4600217868FFF72FFF00BF0837F6
:100EEC00BD4680BD80B586B000AFF860B9601346D2
:100EFC00FB710023FB750BE0BB685A1CBA601B78B6
:100F0C001A460121F868FFF718FFFB7D0133FB75CA
:100F1C00FA7DFB799A42EFD300BF00BF1837BD466C
:100F2C0080BD80B584B000AFF8607B600B46FB726F
:100F3C001346BB72BA7AFB7A1946F868FFF7B5FF0D
:100F4C003B7E1A467968F868FFF7CCFF00BF103774
:100F5C00BD4680BD80B582B000AF78600122002113
:100F6C007868FFF7EAFE4FF4FA60FFF759FE00BF0E
:100F7C000837BD4680BD80B582B000AF78600846AA
:100F8C0011461A460346FB700B46BB7013467B702A
:100F9C007B6800229A77FB78002B06D07B689B7FBE
:100FAC0043F00403DAB27B689A77BB78002B06D047
:100FBC007B689B7F43F00203DAB27B689A777B787D
:100FCC00002B06D07B689B7F43F00103DAB27B6871
:100FDC009A777B689B7F43F00403DAB27B689A773D
:100FEC007B689B7F43F00803DBB21A4600217868CC
:100FFC00FFF7A3FE00BF0837BD4680BD80B582B0A9
:10100C0000AF78607B689B6D6820984700BF0837FD
:10101C00BD4680BD80B582B000AF78607B681B2276
:10102C001A707B689B78DB00DAB27B685A707B683D
:10103C001C22DA707B685B79DB00DAB27B681A7190
:10104C007B685B6D79680222682098477B685B6DD2
:10105C007A68D11C02226820984700BF0837BD4629
:10106C0080BD80B584B000AF78603B23FB737B6898
:10107C005B6D07F10F010122682098477B681B6D9F
:10108C007A68911D0622682098477B68B3F9063070
:10109C001B021AB27B68B3F9083013431AB27B688F
:1010AC005A827B68B3F90A301B021AB27B68B3F917
:1010BC000C3013431AB27B681A837B68B3F90E3079
:1010CC001B021AB27B68B3F9103013431AB27B6857
:1010DC001A8400BF1037BD4680BD80B584B000AF08
:1010EC0078604323FB737B685B6D07F10F01012272
:1010FC00682098477B68B3F928301B021AB27B68CA
:10110C00B3F92A3013431AB27B689A867B68B3F919
:10111C002C301B021AB27B68B3F92E3013431AB26F
:10112C007B689A877B68B3F930301B021AB27B68F4
:10113C00B3F9323013431AB27B68A3F8442000BFD2
:10114C001037BD4680BD90B583B000AF78607B682A
:10115C00B3F912301846FFF7B5F804467B685B7993
:10116C0001334FF4004242FA03F31846FFF7AAF892
:10117C00034619462046FFF7ADF903461A467B682D
:10118C005A617B68B3F918301846FFF79BF8044690
:10119C007B685B7901334FF4004242FA03F3184643
:1011AC00FFF790F8034619462046FFF793F90346DC
:1011BC001A467B68DA617B68B3F920301846FFF772
:1011CC0081F804467B685B7901334FF4004242FAA4
:1011DC0003F31846FFF776F8034619462046FFF747
:1011EC0079F903461A467B685A6200BF0C37BD4634
:1011FC0090BD80B582B000AF78607B68B3F93430B5
:10120C001A467B689B78194683230B4192FBF3F3B8
:10121C001846FFF757F802467B689A637B68B3F968
:10122C003C301A467B689B78194683230B4192FB12
:10123C00F3F31846FFF746F802467B681A647B689E
:10124C00B3F944301A467B689B78194683230B41CB
:10125C0092FBF3F31846FFF735F802467B689A6465
:10126C0000BF0837BD4680BD80B500AF084B1B687A
:10127C00074A43F010031360032000F02BF90F20F2
:10128C0000F008F8FFF77EFB0023184680BD00BF76
:10129C000020024080B582B000AF7860124B1A6813
:1012AC00124B1B7819464FF47A73B3FBF1F3B2FB74
:1012BC00F3F3184600F035F90346002B01D0012357
:1012CC000EE07B680F2B0AD8002279684FF0FF30B4
:1012DC0000F00BF9064A7B681360002300E0012341
:1012EC0018460837BD4680BD7C00002084000020D5
:1012FC008000002080B400AF054B1B781A46054BCC
:10130C001B681344034A136000BFBD4680BC704782
:10131C00840000207401002080B400AF024B1B68D5
:10132C001846BD4680BC70477401002080B584B05F
:10133C0000AF7860FFF7F0FFB8607B68FB60FB687C
:10134C00B3F1FF3F05D00A4B1B781A46FB681344D8
:10135C00FB6000BFFFF7E0FF0246BB68D31AFA68D8
:10136C009A42F7D800BF00BF1037BD4680BD00BF02
:10137C008400002080B485B000AF78607B6803F0F7
:10138C000703FB600C4BDB68BB60BA684FF6FF03CE
:10139C001340BB60FB681A02BB68134343F0BF6386
:1013AC0043F40033BB60044ABB68D36000BF1437FE
:1013BC00BD4680BC704700BF00ED00E080B400AFBC
:1013CC00044BDB681B0A03F007031846BD4680BCC0
:1013DC00704700BF00ED00E080B483B000AF03465F
:1013EC003960FB7197F90730002B0ADB3B68DAB2E6
:1013FC000C4997F907301201D2B20B4483F8002341
:10140C000AE03B68DAB20849FB7903F00F03043BAE
:10141C001201D2B20B441A7600BF0C37BD4680BC09
:10142C00704700BF00E100E000ED00E080B489B03F
:10143C0000AFF860B9607A60FB6803F00703FB61EA
:10144C00FB69C3F10703042B28BF0423BB61FB69B1
:10145C000433062B02D9FB69033B00E000237B61BC
:10146C004FF0FF32BB6902FA03F3DA43BB681A4050
:10147C007B699A404FF0FF317B6901FA03F3D94342
:10148C007B680B40134318462437BD4680BC70471D
:10149C0080B582B000AF78607B68013BB3F1807F90
:1014AC0001D301230FE00A4A7B68013B53600F21F3
:1014BC004FF0FF30FFF790FF054B00229A60044B72
:1014CC0007221A60002318460837BD4680BD00BFAE
:1014DC0010E000E080B582B000AF78607868FFF76C
:1014EC0049FF00BF0837BD4680BD80B586B000AF50
:1014FC000346B9607A60FB7300237B61FFF75EFFE4
:10150C0078617A68B9687869FFF790FF024697F9B5
:10151C000F3011461846FFF75FFF00BF1837BD4666
:10152C0080BD80B582B000AF78607868FFF7B0FFFF
:10153C00034618460837BD4680BD000080B48BB00A
:10154C0000AF7860396000237B6200233B6269E165
:10155C0001227B6A02FA03F3FB613B681B68FA69A0
:10156C001340BB61BA69FB699A4240F058813B68F1
:10157C005B689A4A93425ED0984A934275D8984ACF
:10158C00934258D0964A93426FD8964A934252D07F
:10159C00944A934269D8944A93424CD0924A9342CB
:1015AC0063D8924A934246D0904A93425DD8122B0C
:1015BC002AD8122B59D801A252F823F0431600084E
:1015CC001D1600082F160008711600087716000863
:1015DC0077160008771600087716000877160008AB
:1015EC00771600087716000877160008771600089B
:1015FC00771600087716000877160008771600088B
:10160C002516000839160008794A934213D02CE0AD
:10161C003B68DB683B6229E03B68DB6804333B6278
:10162C0024E03B68DB6808333B621FE03B68DB6807
:10163C000C333B621AE03B689B68002B02D10423FD
:10164C003B6213E03B689B68012B05D108233B628E
:10165C007B68FA691A6109E008233B627B68FA69C6
:10166C005A6103E000233B6200E000BFBB69FF2B23
:10167C0001D87B6801E07B6804337B61BB69FF2B7D
:10168C0002D87B6A9B0002E07B6A083B9B003B61B3
:10169C007B691A680F213B6901FA03F3DB431A409B
:1016AC00396A3B6901FA03F31A437B691A603B6898
:1016BC005B6803F08053002B00F0B1804D4B9B69AD
:1016CC004C4A43F0010393614A4B9B6903F00103BD
:1016DC00BB60BB68484A7B6A9B08023352F82330D4
:1016EC00FB607B6A03F003039B000F2202FA03F3F7
:1016FC00DB43FA681340FB607B68404A934213D08B
:10170C007B683F4A93420DD07B683E4A934207D098
:10171C007B683D4A934201D1032306E0042304E095
:10172C00022302E0012300E000237A6A02F00302A4
:10173C0092009340FA681343FB602F497B6A9B0825
:10174C000233FA6841F823203B685B6803F480138A
:10175C00002B06D02D4B9A682C49BB6913438B6028
:10176C0006E02A4B9A68BB69DB43284913408B601F
:10177C003B685B6803F40013002B06D0234BDA683C
:10178C002249BB691343CB6006E0204BDA68BB6986
:10179C00DB431E491340CB603B685B6803F40033AA
:1017AC00002B06D0194B5A681849BB6913434B6080
:1017BC0006E0164B5A68BB69DB43144913404B6077
:1017CC003B685B6803F48033002B21D00F4B1A6805
:1017DC000E49BB6913430B6021E000BF00003210BF
:1017EC000000311000002210000021100000121027
:1017FC0000001110001002400000014000080140E0
:10180C00000C014000100140001401400004014094
:10181C000B4B1A68BB69DB43094913400B607B6AAD
:10182C0001337B623B681A687B6A22FA03F3002B54
:10183C007FF48EAE00BF00BF2C37BD4680BC704716
:10184C000004014080B483B000AF78600B467B800D
:10185C0013467B707B78002B03D07A887B681A61E7
:10186C0003E07B881A047B681A6100BF0C37BD4605
:10187C0080BC704780B584B000AF78607B68002B6B
:10188C0001D101232BE17B6893F83D30DBB2002BB7
:10189C0006D17B68002283F83C207868FFF7A4F817
:1018AC007B68242283F83D207B681B681A687B6860
:1018BC001B6822F001021A607B681B681A687B683F
:1018CC001B6842F400421A607B681B681A687B68CC
:1018DC001B6822F400421A6002F0B6F8F8607B68CC
:1018EC005B68814A934207D8FB68804A934294BF55
:1018FC0001230023DBB206E0FB687D4A934294BFD0
:10190C0001230023DBB2002B01D00123E7E0FB68AD
:10191C00784AA2FB03239B0CBB607B681B685B684B
:10192C0023F03F017B681B68BA680A435A607B68E6
:10193C001B681B6A23F03F017B685B686A4A934211
:10194C0002D8BB68013309E0BB684FF4967202FB06
:10195C0003F3694AA2FB03239B0901337A681268DB
:10196C000B4313627B681B68DB6923F44F4222F044
:10197C00FF027B685B685C498B4219D8FB68591E77
:10198C007B685B685B00B1FBF3F3591C40F6FC739E
:10199C000B40002B0AD0FB68591E7B685B685B0010
:1019AC00B1FBF3F30133C3F30B0351E004234FE01A
:1019BC007B689B68002B11D1FB68581E7B685968AB
:1019CC000B465B000B44B0FBF3F30133C3F30B0387
:1019DC00002B0CBF01230023DBB212E0FB68581E66
:1019EC007B6859680B469B000B4499000B44B0FB79
:1019FC00F3F30133C3F30B03002B0CBF01230023C0
:101A0C00DBB2002B01D0012322E07B689B68002B0A
:101A1C000ED1FB68581E7B6859680B465B000B4463
:101A2C00B0FBF3F30133C3F30B0343F400430FE0B8
:101A3C00FB68581E7B6859680B469B000B44990049
:101A4C000B44B0FBF3F30133C3F30B0343F44043F8
:101A5C00796809681343CB617B681B681B6823F0AA
:101A6C00C0017B68DA697B681B6A1A437B681B6858
:101A7C000A431A607B681B689B6823F4034323F0BA
:101A8C00FF037A6811697A68D26811437A68126820
:101A9C000B4393607B681B68DB6823F0FF017B685A
:101AAC005A697B689B691A437B681B680A43DA6036
:101ABC007B681B681A687B681B6842F001021A601D
:101ACC007B6800221A647B68202283F83D207B68A7
:101ADC0000221A637B68002283F83E2000231846FC
:101AEC001037BD4680BD00BFA08601007F841E005C
:101AFC00FF083D0083DE1B43D34D621080B588B0D8
:101B0C0002AFF8607A601A460B467B8113463B8124
:101B1C00FFF702FC7861FB6893F83D30DBB2202BB9
:101B2C0040F0E0807B690093192301227049F8682A
:101B3C0001F08AF90346002B01D00223D3E0FB68A5
:101B4C0093F83C30012B01D10223CCE0FB6801223D
:101B5C0083F83C20FB681B681B6803F00103012B16
:101B6C0007D0FB681B681A68FB681B6842F001020F
:101B7C001A60FB681B681A68FB681B6822F4006219
:101B8C001A60FB68212283F83D20FB68102283F841
:101B9C003E20FB6800221A64FB687A685A62FB6874
:101BAC003A895A85FB685B8D9AB2FB681A85FB688B
:101BBC00504ADA6279897B693A6AF86800F076FEF5
:101BCC000346002B01D001238DE000233B61FB6811
:101BDC001B685B693B61FB681B689B693B613B69EC
:101BEC0066E07A69396AF86801F048FA0346002B16
:101BFC000DD0FB681B6C042B07D1FB681B681A68A3
:101C0C00FB681B6842F400721A6001236BE0FB68EE
:101C1C005B6A1A78FB681B681A61FB685B6A5A1C62
:101C2C00FB685A62FB685B8D9BB2013B9AB2FB6806
:101C3C005A85FB681B8D013B9AB2FB681A85FB68C1
:101C4C001B685B6903F00403042B1BD1FB681B8D21
:101C5C00002B17D0FB685B6A1A78FB681B681A614B
:101C6C00FB685B6A5A1CFB685A62FB685B8D9BB213
:101C7C00013B9AB2FB685A85FB681B8D013B9AB2FB
:101C8C00FB681A857A69396AF86801F03FFA0346ED
:101C9C00002B0DD0FB681B6C042B07D1FB681B6859
:101CAC001A68FB681B6842F400721A6001231AE080
:101CBC00FB681B8D002B94D1FB681B681A68FB68B2
:101CCC001B6842F400721A60FB68202283F83D20E6
:101CDC00FB68002283F83E20FB68002283F83C203E
:101CEC00002300E0022318461837BD4680BD00BF14
:101CFC00020010000000FFFF80B58CB002AFF8604E
:101D0C007A601A460B467B8113463B8100233B626B
:101D1C00FFF702FB7862FB6893F83D30DBB2202BB7
:101D2C0040F04B827B6A0093192301227F49F868AB
:101D3C0001F08AF80346002B01D002233EE2FB6837
:101D4C0093F83C30012B01D1022337E2FB680122CE
:101D5C0083F83C20FB681B681B6803F00103012B14
:101D6C0007D0FB681B681A68FB681B6842F001020D
:101D7C001A60FB681B681A68FB681B6822F4006217
:101D8C001A60FB68222283F83D20FB68102283F83E
:101D9C003E20FB6800221A64FB687A685A62FB6872
:101DAC003A895A85FB685B8D9AB2FB681A85FB6889
:101DBC005F4ADA6279897B6A3A6BF86800F0F8FD61
:101DCC000346002B01D00123F8E1FB681B8D002B8F
:101DDC0013D10023FB61FB681B685B69FB61FB682B
:101DEC001B689B69FB61FB69FB681B681A68FB68D5
:101DFC001B6842F400721A60CCE1FB681B8D012B4E
:101E0C001ED1FB681B681A68FB681B6822F4806291
:101E1C001A6072B600BF0023BB61FB681B685B696C
:101E2C00BB61FB681B689B69BB61BB69FB681B687A
:101E3C001A68FB681B6842F400721A6062B635E0DF
:101E4C00FB681B8D022B1ED1FB681B681A68FB6894
:101E5C001B6842F400621A6072B600BF00237B61FB
:101E6C00FB681B685B697B61FB681B689B697B611A
:101E7C007B69FB681B681A68FB681B6822F480622C
:101E8C001A6062B612E0FB681B681A68FB681B6874
:101E9C0042F480621A6000233B61FB681B685B693B
:101EAC003B61FB681B689B693B613B6972E1FB68AA
:101EBC001B8D032B00F21F81FB681B8D012B23D183
:101ECC007A6A396BF86801F069F90346002B01D086
:101EDC00012373E1FB681B681A69FB685B6AD2B269
:101EEC001A70FB685B6A5A1CFB685A62FB681B8D94
:101EFC00013B9AB2FB681A85FB685B8D9BB2013B78
:101F0C009AB2FB685A8545E1FB681B8D022B52D1B6
:101F1C007B6A00933B6B00220649F86800F094FF43
:101F2C000346002B08D0012348E100BF020010003B
:101F3C000000FFFF0400010072B600BFFB681B68C5
:101F4C001A68FB681B6842F400721A60FB681B6815
:101F5C001A69FB685B6AD2B21A70FB685B6A5A1C1E
:101F6C00FB685A62FB681B8D013B9AB2FB681A85B1
:101F7C00FB685B8D9BB2013B9AB2FB685A8562B6DB
:101F8C0000BFFB681B681A69FB685B6AD2B21A70E7
:101F9C00FB685B6A5A1CFB685A62FB681B8D013B31
:101FAC009AB2FB681A85FB685B8D9BB2013B9AB2B7
:101FBC00FB685A85EEE07B6A00933B6B00228149FB
:101FCC00F86800F041FF0346002B01D00123F5E037
:101FDC00FB681B681A68FB681B6822F480621A6035
:101FEC0072B600BFFB681B681A69FB685B6AD2B2E9
:101FFC001A70FB685B6A5A1CFB685A62FB681B8D83
:10200C00013B9AB2FB681A85FB685B8D9BB2013B66
:10201C009AB2FB685A856C4B1B68DB086B4AA2FBB7
:10202C0003231A0A13469B001344DA00D31A3B62AB
:10203C003B6A013B3B623B6A002B18D1FB680022D8
:10204C001A63FB68202283F83D20FB68002283F88A
:10205C003E20FB681B6C43F02002FB681A6462B6DE
:10206C0000BFFB68002283F83C200123A6E0FB683C
:10207C001B685B6903F00403042BD9D1FB681B6854
:10208C001A68FB681B6842F400721A60FB681B68D4
:10209C001A69FB685B6AD2B21A70FB685B6A5A1CDD
:1020AC00FB685A62FB681B8D013B9AB2FB681A8570
:1020BC00FB685B8D9BB2013B9AB2FB685A8562B69A
:1020CC0000BFFB681B681A69FB685B6AD2B21A70A6
:1020DC00FB685B6A5A1CFB685A62FB681B8D013BF0
:1020EC009AB2FB681A85FB685B8D9BB2013B9AB276
:1020FC00FB685A854EE07A6A396BF86801F04EF845
:10210C000346002B01D0012358E0FB681B681A69B9
:10211C00FB685B6AD2B21A70FB685B6A5A1CFB687C
:10212C005A62FB681B8D013B9AB2FB681A85FB68EF
:10213C005B8D9BB2013B9AB2FB685A85FB681B68AE
:10214C005B6903F00403042B24D1FB681B8D032B68
:10215C0007D1FB681B681A68FB681B6822F4806255
:10216C001A60FB681B681A69FB685B6AD2B21A704A
:10217C00FB685B6A5A1CFB685A62FB681B8D013B4F
:10218C009AB2FB681A85FB685B8D9BB2013B9AB2D5
:10219C00FB685A85FB681B8D002B7FF488AEFB68AF
:1021AC00202283F83D20FB68002283F83E20FB6848
:1021BC00002283F83C20002300E002231846283735
:1021CC00BD4680BD040001007C00002089B5F814D8
:1021DC0080B588B002AFF860084611461A4603462F
:1021EC007B810B463B811346FB80FFF795F87861AA
:1021FC00FB6893F83D30DBB2202B40F0D9807B6933
:10220C000093192301226D49F86800F01DFE034666
:10221C00002B01D00223CCE0FB6893F83C30012B5F
:10222C0001D10223C5E0FB68012283F83C20FB6846
:10223C001B681B6803F00103012B07D0FB681B68AC
:10224C001A68FB681B6842F001021A60FB681B6885
:10225C001A68FB681B6822F400621A60FB68212272
:10226C0083F83D20FB68402283F83E20FB68002267
:10227C001A64FB683A6A5A62FB68BA8C5A85FB6826
:10228C005B8D9AB2FB681A85FB684D4ADA62F88856
:10229C003A8979897B690193BB6A00930346F86894
:1022AC0000F054FC0346002B52D0012381E07A69E4
:1022BC00B96AF86800F0E2FE0346002B0DD0FB680B
:1022CC001B6C042B07D1FB681B681A68FB681B6826
:1022DC0042F400721A6001236BE0FB685B6A1A78A7
:1022EC00FB681B681A61FB685B6A5A1CFB685A62C4
:1022FC00FB681B8D013B9AB2FB681A85FB685B8DF2
:10230C009BB2013B9AB2FB685A85FB681B685B6900
:10231C0003F00403042B1BD1FB681B8D002B17D07F
:10232C00FB685B6A1A78FB681B681A61FB685B6A5E
:10233C005A1CFB685A62FB681B8D013B9AB2FB6806
:10234C001A85FB685B8D9BB2013B9AB2FB685A8580
:10235C00FB681B8D002BAAD17A69B96AF86800F06A
:10236C00D5FE0346002B0DD0FB681B6C042B07D14C
:10237C00FB681B681A68FB681B6842F400721A60E1
:10238C00012316E0FB681B681A68FB681B6842F4A3
:10239C0000721A60FB68202283F83D20FB68002243
:1023AC0083F83E20FB68002283F83C20002300E0E9
:1023BC00022318461837BD4680BD00BF020010002E
:1023CC000000FFFF80B58CB002AFF86008461146E4
:1023DC001A4603467B810B463B811346FB80002348
:1023EC003B62FEF799FF7862FB6893F83D30DBB2F5
:1023FC00202B40F050827B6A0093192301228249E2
:10240C00F86800F021FD0346002B01D0022343E2C3
:10241C00FB6893F83C30012B01D102233CE2FB68B2
:10242C00012283F83C20FB681B681B6803F0010346
:10243C00012B07D0FB681B681A68FB681B6842F00D
:10244C0001021A60FB681B681A68FB681B6822F49F
:10245C0000621A60FB68222283F83D20FB68402250
:10246C0083F83E20FB6800221A64FB683A6B5A62C0
:10247C00FB68BA8E5A85FB685B8D9AB2FB681A852D
:10248C00FB68624ADA62F8883A8979897B6A019337
:10249C00BB6B00930346F86800F0EEFB0346002B81
:1024AC0001D00123F8E1FB681B8D002B13D1002315
:1024BC00FB61FB681B685B69FB61FB681B689B69C4
:1024CC00FB61FB69FB681B681A68FB681B6842F4BC
:1024DC0000721A60CCE1FB681B8D012B1ED1FB68CE
:1024EC001B681A68FB681B6822F480621A6072B65B
:1024FC0000BF0023BB61FB681B685B69BB61FB68A9
:10250C001B689B69BB61BB69FB681B681A68FB682D
:10251C001B6842F400721A6062B635E0FB681B8DD2
:10252C00022B1ED1FB681B681A68FB681B6842F4FF
:10253C0000621A6072B600BF00237B61FB681B68E7
:10254C005B697B61FB681B689B697B617B69FB68D2
:10255C001B681A68FB681B6822F480621A6062B6FA
:10256C0012E0FB681B681A68FB681B6842F4806207
:10257C001A6000233B61FB681B685B693B61FB686D
:10258C001B689B693B613B6972E1FB681B8D032BEC
:10259C0000F21F81FB681B8D012B23D17A6AB96B6A
:1025AC00F86800F0FBFD0346002B01D0012373E11A
:1025BC00FB681B681A69FB685B6AD2B21A70FB680D
:1025CC005B6A5A1CFB685A62FB681B8D013B9AB212
:1025DC00FB681A85FB685B8D9BB2013B9AB2FB686A
:1025EC005A8545E1FB681B8D022B52D17B6A009307
:1025FC00BB6B00220649F86800F026FC0346002B52
:10260C0008D0012348E100BF020010000000FFFFCA
:10261C000400010072B600BFFB681B681A68FB68F7
:10262C001B6842F400721A60FB681B681A69FB682D
:10263C005B6AD2B21A70FB685B6A5A1CFB685A62FE
:10264C00FB681B8D013B9AB2FB681A85FB685B8D9E
:10265C009BB2013B9AB2FB685A8562B600BFFB681D
:10266C001B681A69FB685B6AD2B21A70FB685B6AFA
:10267C005A1CFB685A62FB681B8D013B9AB2FB68C3
:10268C001A85FB685B8D9BB2013B9AB2FB685A853D
:10269C00EEE07B6A0093BB6B00228149F86800F086
:1026AC00D3FB0346002B01D00123F5E0FB681B682C
:1026BC001A68FB681B6822F480621A6072B600BF4D
:1026CC00FB681B681A69FB685B6AD2B21A70FB68FC
:1026DC005B6A5A1CFB685A62FB681B8D013B9AB201
:1026EC00FB681A85FB685B8D9BB2013B9AB2FB6859
:1026FC005A856C4B1B68DB086B4AA2FB03231A0A36
:10270C0013469B001344DA00D31A3B623B6A013B2D
:10271C003B623B6A002B18D1FB6800221A63FB68F2
:10272C00202283F83D20FB68002283F83E20FB68C2
:10273C001B6C43F02002FB681A6462B600BFFB6896
:10274C00002283F83C200123A6E0FB681B685B6930
:10275C0003F00403042BD9D1FB681B681A68FB68CF
:10276C001B6842F400721A60FB681B681A69FB68EC
:10277C005B6AD2B21A70FB685B6A5A1CFB685A62BD
:10278C00FB681B8D013B9AB2FB681A85FB685B8D5D
:10279C009BB2013B9AB2FB685A8562B600BFFB68DC
:1027AC001B681A69FB685B6AD2B21A70FB685B6AB9
:1027BC005A1CFB685A62FB681B8D013B9AB2FB6882
:1027CC001A85FB685B8D9BB2013B9AB2FB685A85FC
:1027DC004EE07A6AB96BF86800F0E0FC0346002B17
:1027EC0001D0012358E0FB681B681A69FB685B6A1F
:1027FC00D2B21A70FB685B6A5A1CFB685A62FB689F
:10280C001B8D013B9AB2FB681A85FB685B8D9BB2F2
:10281C00013B9AB2FB685A85FB681B685B6903F045
:10282C000403042B24D1FB681B8D032B07D1FB68FD
:10283C001B681A68FB681B6822F480621A60FB68CC
:10284C001B681A69FB685B6AD2B21A70FB685B6A18
:10285C005A1CFB685A62FB681B8D013B9AB2FB68E1
:10286C001A85FB685B8D9BB2013B9AB2FB685A855B
:10287C00FB681B8D002B7FF488AEFB68202283F84D
:10288C003D20FB68002283F83E20FB68002283F881
:10289C003C20002300E0022318462837BD4680BDAB
:1028AC00040001007C00002089B5F81480B588B0C4
:1028BC0002AFF8607A603B600B467B81FB68DB6A99
:1028CC007B617B69082B06D07B69012B03D07B696C
:1028DC0013F5803F08D1FB681B681A68FB681B68FE
:1028EC0042F480721A600BE0FB681B6B122B07D151
:1028FC00FB681B681A68FB681B6842F480721A60DC
:10290C003B6800937B6800224FF00111F86800F0DF
:10291C009BFA0346002B0DD0FB681B681B6803F465
:10292C008073B3F5807F03D1FB684FF400721A6497
:10293C00032335E0FB681B69B3F5804F08D17B8915
:10294C00DBB21A46FB681B6802F0FE021A611BE040
:10295C007B89DB11DBB203F00603DBB263F00F0300
:10296C00DAB2FB681B681A613B687A680E49F86832
:10297C0000F0E4FA0346002B01D0012310E07B8920
:10298C00DAB2FB681B681A613B687A680749F86819
:10299C0000F0D4FA0346002B01D0012300E0002301
:1029AC0018461837BD4680BD080001000200010022
:1029BC0080B588B002AFF8607A603B600B467B81D3
:1029CC00FB68DB6A7B61FB681B681A68FB681B6829
:1029DC0042F480621A607B69082B06D07B69012B5C
:1029EC0003D07B6913F5803F08D1FB681B681A681C
:1029FC00FB681B6842F480721A600BE0FB681B6B6F
:102A0C00112B07D1FB681B681A68FB681B6842F422
:102A1C0080721A603B6800937B6800224FF00111B2
:102A2C00F86800F011FA0346002B0DD0FB681B6808
:102A3C001B6803F48073B3F5807F03D1FB684FF4FC
:102A4C0000721A64032379E0FB681B69B3F5804FAD
:102A5C0008D17B89DBB243F00103DAB2FB681B6857
:102A6C001A615FE07B89DB11DBB203F00603DBB29A
:102A7C0063F00F03DAB2FB681B681A613B687A6873
:102A8C003049F86800F05AFA0346002B01D00123B4
:102A9C0054E07B89DAB2FB681B681A613B687A6880
:102AAC002949F86800F04AFA0346002B01D00123AB
:102ABC0044E000233B61FB681B685B693B61FB687E
:102ACC001B689B693B613B69FB681B681A68FB6868
:102ADC001B6842F480721A603B6800937B6800228A
:102AEC004FF00111F86800F0AFF90346002B0DD040
:102AFC00FB681B681B6803F48073B3F5807F03D1FC
:102B0C00FB684FF400721A64032317E07B89DB1116
:102B1C00DBB203F00603DBB263F00E03DAB2FB6840
:102B2C001B681A613B687A680749F86800F006FA76
:102B3C000346002B01D0012300E000231846183770
:102B4C00BD4680BD080001000200010080B588B0C0
:102B5C0002AFF860084611461A4603467B810B46C5
:102B6C003B811346FB80FB681B681A68FB681B687B
:102B7C0042F480721A607B6A00933B6A00224FF029
:102B8C000111F86800F060F90346002B0DD0FB68CA
:102B9C001B681B6803F48073B3F5807F03D1FB685B
:102BAC004FF400721A6403235FE07B89DBB21A4690
:102BBC00FB681B6802F0FE021A617B6A3A6A2D49B7
:102BCC00F86800F0BBF90346002B01D001234CE060
:102BDC0000237B61FB681B685B697B61FB681B687E
:102BEC009B697B617B697A6A396AF86800F046FAFE
:102BFC000346002B0DD0FB681B6C042B07D1FB6824
:102C0C001B681A68FB681B6842F400721A60012387
:102C1C002BE0FB88012B05D13B89DAB2FB681B68E2
:102C2C001A6121E03B891B0A9BB2DAB2FB681B6874
:102C3C001A617A6A396AF86800F020FA0346002BA8
:102C4C000DD0FB681B6C042B07D1FB681B681A6842
:102C5C00FB681B6842F400721A60012305E03B8993
:102C6C00DAB2FB681B681A61002318461837BD4698
:102C7C0080BD00BF0200010080B588B002AFF860D3
:102C8C00084611461A4603467B810B463B81134688
:102C9C00FB80FB681B681A68FB681B6842F4806247
:102CAC001A60FB681B681A68FB681B6842F4807228
:102CBC001A607B6A00933B6A00224FF00111F8689E
:102CCC0000F0C2F80346002B0DD0FB681B681B6894
:102CDC0003F48073B3F5807F03D1FB684FF400726B
:102CEC001A640323AAE07B89DBB21A46FB681B68D3
:102CFC0002F0FE021A617B6A3A6A5249F86800F0E7
:102D0C001DF90346002B01D0012397E000237B61C2
:102D1C00FB681B685B697B61FB681B689B697B615B
:102D2C007B697A6A396AF86800F0A8F90346002BC7
:102D3C000DD0FB681B6C042B07D1FB681B681A6851
:102D4C00FB681B6842F400721A60012376E0FB8872
:102D5C00012B05D13B89DAB2FB681B681A6121E0B3
:102D6C003B891B0A9BB2DAB2FB681B681A617A6A50
:102D7C00396AF86800F082F90346002B0DD0FB6825
:102D8C001B6C042B07D1FB681B681A68FB681B685B
:102D9C0042F400721A60012350E03B89DAB2FB68FE
:102DAC001B681A617A6A396AF86800F067F9034699
:102DBC00002B0DD0FB681B6C042B07D1FB681B6828
:102DCC001A68FB681B6842F400721A60012335E034
:102DDC00FB681B681A68FB681B6842F480721A60F7
:102DEC007B6A00933B6A00224FF00111F86800F0F7
:102DFC002BF80346002B0DD0FB681B681B6803F4F3
:102E0C008073B3F5807F03D1FB684FF400721A64B2
:102E1C00032313E07B89DBB243F00103DAB2FB68D6
:102E2C001B681A617B6A3A6A0649F86800F086F8F2
:102E3C000346002B01D0012300E00023184618376D
:102E4C00BD4680BD0200010080B584B000AFF860C3
:102E5C00B9603B601346FB7148E03B68B3F1FF3F40
:102E6C0044D0FEF759FA0246BB69D31A3A689A4223
:102E7C0002D33B68002B39D1BB681B0CDBB2012B96
:102E8C000DD1FB681B685B69DA43BB6813409BB2CE
:102E9C00002B0CBF01230023DBB21A460CE0FB68AD
:102EAC001B689B69DA43BB6813409BB2002B0CBFB9
:102EBC0001230023DBB21A46FB799A4216D1FB6838
:102ECC0000221A63FB68202283F83D20FB68002255
:102EDC0083F83E20FB681B6C43F02002FB681A64ED
:102EEC00FB68002283F83C20012323E0BB681B0C09
:102EFC00DBB2012B0DD1FB681B685B69DA43BB6845
:102F0C0013409BB2002B0CBF01230023DBB21A46EB
:102F1C000CE0FB681B689B69DA43BB6813409BB2EF
:102F2C00002B0CBF01230023DBB21A46FB799A421B
:102F3C0093D0002318461037BD4680BD80B584B0B1
:102F4C0000AFF860B9607A603B6071E0FB681B68A9
:102F5C005B6903F48063B3F5806F23D1FB681B6856
:102F6C001A68FB681B6842F400721A60FB681B68E5
:102F7C006FF480625A61FB6800221A63FB6820229E
:102F8C0083F83D20FB68002283F83E20FB681B6C15
:102F9C0043F00402FB681A64FB68002283F83C20AF
:102FAC00012367E07B68B3F1FF3F41D0FEF7B4F932
:102FBC0002463B68D31A7A689A4202D37B68002B8C
:102FCC0036D1BB681B0CDBB2012B0CD1FB681B6828
:102FDC005B69DA43BB6813409BB2002B14BF01231F
:102FEC000023DBB20BE0FB681B689B69DA43BB6810
:102FFC0013409BB2002B14BF01230023DBB2002B28
:10300C0016D0FB6800221A63FB68202283F83D204F
:10301C00FB68002283F83E20FB681B6C43F0200207
:10302C00FB681A64FB68002283F83C20012321E032
:10303C00BB681B0CDBB2012B0CD1FB681B685B69FA
:10304C00DA43BB6813409BB2002B14BF012300234F
:10305C00DBB20BE0FB681B689B69DA43BB6813406F
:10306C009BB2002B14BF01230023DBB2002B7FF497
:10307C006DAF002318461037BD4680BD80B584B0B7
:10308C0000AFF860B9607A6034E0F86800F0E3F8FB
:10309C000346002B01D0012334E0BB68B3F1FF3FA2
:1030AC0028D0FEF739F902467B68D31ABA689A42DF
:1030BC0002D3BB68002B1DD1FB681B685B6903F056
:1030CC008003802B16D0FB6800221A63FB68202239
:1030DC0083F83D20FB68002283F83E20FB681B6CC4
:1030EC0043F02002FB681A64FB68002283F83C2042
:1030FC00012307E0FB681B685B6903F08003802BEE
:10310C00C3D1002318461037BD4680BD80B584B0AE
:10311C0000AFF860B9607A6034E0F86800F09BF8B2
:10312C000346002B01D0012334E0BB68B3F1FF3F11
:10313C0028D0FEF7F1F802467B68D31ABA689A4297
:10314C0002D3BB68002B1DD1FB681B685B6903F0C5
:10315C000403042B16D0FB6800221A63FB682022A0
:10316C0083F83D20FB68002283F83E20FB681B6C33
:10317C0043F02002FB681A64FB68002283F83C20B1
:10318C00012307E0FB681B685B6903F00403042B55
:10319C00C3D1002318461037BD4680BD80B584B01E
:1031AC0000AFF860B9607A6049E0FB681B685B6946
:1031BC0003F01003102B19D1FB681B686FF0100281
:1031CC005A61FB6800221A63FB68202283F83D20B9
:1031DC00FB68002283F83E20FB681A6CFB681A64BB
:1031EC00FB68002283F83C20012330E0FEF794F8C2
:1031FC0002467B68D31ABA689A4202D3BB68002B8A
:10320C001DD1FB681B685B6903F04003402B16D093
:10321C00FB6800221A63FB68202283F83D20FB68C0
:10322C00002283F83E20FB681B6C43F02002FB68F5
:10323C001A64FB68002283F83C20012307E0FB683A
:10324C001B685B6903F04003402BAED1002318468A
:10325C001037BD4680BD80B483B000AF78607B680A
:10326C001B685B6903F48063B3F5806F1BD17B68CB
:10327C001B686FF480625A617B6800221A637B685A
:10328C00202283F83D207B68002283F83E207B6857
:10329C001B6C43F004027B681A647B68002283F881
:1032AC003C20012300E0002318460C37BD4680BCAF
:1032BC007047000080B586B000AF78607B68002B4B
:1032CC0001D1012372E27B681B6803F00103002B20
:1032DC0000F08780924B5B6803F00C03042B0CD03E
:1032EC008F4B5B6803F00C03082B12D18C4B5B6883
:1032FC0003F48033B3F5803F0BD1894B1B6803F487
:10330C000033002B6CD07B685B68002B68D10123E9
:10331C004CE27B685B68B3F5803F06D1804B1B6841
:10332C007F4A43F4803313602EE07B685B68002B8C
:10333C000CD17B4B1B687A4A23F480331360784B97
:10334C001B68774A23F4802313601DE07B685B685D
:10335C00B3F5A02F0CD1724B1B68714A43F4802338
:10336C0013606F4B1B686E4A43F4803313600BE0A1
:10337C006B4B1B686A4A23F480331360684B1B68E1
:10338C00674A23F4802313607B685B68002B13D09F
:10339C00FDF7C2FF386108E0FDF7BEFF02463B694E
:1033AC00D31A642B01D9032300E25D4B1B6803F491
:1033BC000033002BF0D014E0FDF7AEFF386108E0CD
:1033CC00FDF7AAFF02463B69D31A642B01D90323EC
:1033DC00ECE1534B1B6803F40033002BF0D100E0FD
:1033EC0000BF7B681B6803F00203002B63D04C4BBF
:1033FC005B6803F00C03002B0BD0494B5B6803F0AC
:10340C000C03082B1CD1464B5B6803F48033002B58
:10341C0016D1434B1B6803F00203002B05D07B68CD
:10342C001B69012B01D00123C0E13D4B1B6823F02C
:10343C00F8027B685B69DB00394913430B603AE0A7
:10344C007B681B69002B20D0364B01221A60FDF7DC
:10345C0063FF386108E0FDF75FFF02463B69D31A52
:10346C00022B01D90323A1E12D4B1B6803F00203AE
:10347C00002BF0D02A4B1B6823F0F8027B685B69A9
:10348C00DB00274913430B6015E0264B00221A6022
:10349C00FDF742FF386108E0FDF73EFF02463B694D
:1034AC00D31A022B01D9032380E11D4B1B6803F0B7
:1034BC000203002BF0D17B681B6803F00803002B80
:1034CC003AD07B689B69002B19D0174B01221A60EC
:1034DC00FDF722FF386108E0FDF71EFF02463B694D
:1034EC00D31A022B01D9032360E10D4B5B6A03F065
:1034FC000203002BF0D0012000F0BAFA1CE00A4BBA
:10350C0000221A60FDF708FF38610FE0FDF704FF99
:10351C0002463B69D31A022B08D9032346E100BFAC
:10352C00001002400000424280044242924B5B6A0F
:10353C0003F00203002BE9D17B681B6803F0040342
:10354C00002B00F0A6800023FB758B4BDB6903F08E
:10355C008053002B0DD1884BDB69874A43F0805395
:10356C00D361854BDB6903F08053BB60BB680123DF
:10357C00FB75824B1B6803F48073002B18D17F4BB7
:10358C001B687E4A43F480731360FDF7C5FE3861F7
:10359C0008E0FDF7C1FE02463B69D31A642B01D942
:1035AC00032303E1754B1B6803F48073002BF0D0ED
:1035BC007B68DB68012B06D16F4B1B6A6E4A43F0AC
:1035CC00010313622DE07B68DB68002B0CD16A4B86
:1035DC001B6A694A23F001031362674B1B6A664A34
:1035EC0023F0040313621CE07B68DB68052B0CD111
:1035FC00614B1B6A604A43F0040313625E4B1B6A07
:10360C005D4A43F0010313620BE05B4B1B6A5A4AA1
:10361C0023F001031362584B1B6A574A23F004032F
:10362C0013627B68DB68002B15D0FDF775FE3861E3
:10363C000AE0FDF771FE02463B69D31A41F288326B
:10364C00934201D90323B1E04B4B1B6A03F00203F5
:10365C00002BEED014E0FDF75FFE38610AE0FDF7B9
:10366C005BFE02463B69D31A41F28832934201D980
:10367C0003239BE0404B1B6A03F00203002BEED1AB
:10368C00FB7D012B05D13C4BDB693B4A23F080537E
:10369C00D3617B68DB69002B00F08780364B5B685D
:1036AC0003F00C03082B61D07B68DB69022B46D13D
:1036BC00334B00221A60FDF72FFE386108E0FDF74E
:1036CC002BFE02463B69D31A022B01D903236DE072
:1036DC00294B1B6803F00073002BF0D17B681B6A2D
:1036EC00B3F5803F08D1244B5B6823F400327B6830
:1036FC009B68214913434B601F4B5B6823F4741286
:10370C007B68196A7B685B6A0B431B4913434B60EC
:10371C001B4B01221A60FDF7FFFD386108E0FDF735
:10372C00FBFD02463B69D31A022B01D903233DE072
:10373C00114B1B6803F00073002BF0D035E0104BDD
:10374C0000221A60FDF7E8FD386108E0FDF7E4FDA2
:10375C0002463B69D31A022B01D9032326E0064B00
:10376C001B6803F00073002BF0D11EE07B68DB6953
:10377C00012B07D1012319E000100240007000401A
:10378C00600042420B4B5B68FB60FB6803F48032C9
:10379C007B681B6A9A4206D1FB6803F470127B6843
:1037AC005B6A9A4201D0012300E0002318461837C7
:1037BC00BD4680BD0010024080B584B000AF78607B
:1037CC0039607B68002B01D10123D0E06A4B1B6868
:1037DC0003F007033A689A4210D9674B1B6823F031
:1037EC00070265493B6813430B60634B1B6803F08E
:1037FC0007033A689A4201D00123B8E07B681B6842
:10380C0003F00203002B20D07B681B6803F0040339
:10381C00002B05D0594B5B68584A43F4E063536066
:10382C007B681B6803F00803002B05D0534B5B68C7
:10383C00524A43F460535360504B5B6823F0F002E0
:10384C007B689B684D4913434B607B681B6803F096
:10385C000103002B40D07B685B68012B07D1474BE1
:10386C001B6803F40033002B15D101237FE07B6828
:10387C005B68022B07D1414B1B6803F00073002BD4
:10388C0009D1012373E03D4B1B6803F00203002BAD
:10389C0001D101236BE0394B5B6823F003027B6899
:1038AC005B68364913434B60FDF736FDF8600AE060
:1038BC00FDF732FD0246FB68D31A41F2883293427F
:1038CC0001D9032353E02D4B5B6803F00C027B689A
:1038DC005B689B009A42EBD1274B1B6803F00703F4
:1038EC003A689A4210D2244B1B6823F007022249F3
:1038FC003B6813430B60204B1B6803F007033A68CB
:10390C009A4201D0012332E07B681B6803F0040368
:10391C00002B08D0194B5B6823F4E0627B68DB68F2
:10392C00164913434B607B681B6803F00803002B9C
:10393C0009D0124B5B6823F460527B681B69DB0077
:10394C000E4913434B6000F021F802460B4B5B68A9
:10395C001B0903F00F030A49CB5C22FA03F3094A53
:10396C001360094B1B681846FDF794FC002318469E
:10397C001037BD4680BD00BF002002400010024041
:10398C00504400087C0000208000002080B487B0E8
:10399C0000AF0023FB600023BB6000237B6100238E
:1039AC007B6000233B611E4B5B68FB60FB6803F094
:1039BC000C03042B02D0082B03D027E0194B3B61DE
:1039CC0027E0FB689B0C03F00F03174AD35C7B606A
:1039DC00FB6803F48033002B10D0114B5B685B0C3D
:1039EC0003F00103114AD35CBB607B680D4A03FBF7
:1039FC0002F2BB68B2FBF3F37B6104E07B680C4A18
:103A0C0002FB03F37B617B693B6102E0054B3B618D
:103A1C0000BF3B6918461C37BD4680BC704700BFD1
:103A2C000010024000127A00684400087844000834
:103A3C0000093D0080B400AF024B1B681846BD4620
:103A4C0080BC70477C00002080B500AFFFF7F2FF10
:103A5C000246054B5B681B0A03F007030349CB5C6A
:103A6C0022FA03F3184680BD00100240604400089F
:103A7C0080B485B000AF78600A4B1B680A4AA2FB81
:103A8C0003235B0A7A6802FB03F3FB6000BFFB684D
:103A9C005A1EFA60002BF9D100BF00BF1437BD4687
:103AAC0080BC70477C000020D34D62100EB46FF0C8
:103ABC00004100B59CB01DAB02900690079104919B
:103ACC000848094953F8042B0591006802A9019391
:103ADC0000F08EF90022029B1A701CB05DF804EB0A
:103AEC0003B07047D40000200802FFFF03460244D5
:103AFC00934200D1704703F8011BF9E7014B18689A
:103B0C00704700BFD400002070B500260C4D0D4C42
:103B1C00641BA410A64209D100F07AFC00260A4DC1
:103B2C000A4C641BA410A64205D170BD55F8043B89
:103B3C0098470136EEE755F8043B98470136F2E713
:103B4C00B0440008B0440008B0440008B444000875
:103B5C007047704738B50546002940D051F8043CF1
:103B6C000C1F002BB8BFE41800F0DCF81C4A1368DB
:103B7C0033B9636014602846BDE8384000F0D8B80B
:103B8C00A34208D9206821188B4201BF19685B68D1
:103B9C0009182160EDE71A465B680BB1A342FAD90C
:103BAC0011685018A0420BD1206801445018834270
:103BBC001160E0D118685B68084410605360DAE764
:103BCC0002D90C232B60D6E7206821188B4201BF49
:103BDC0019685B680918216063605460CBE738BDD5
:103BEC00B802002070B50E4E0C463168054611B96E
:103BFC0000F0AAFB30602146284600F0A5FB431CD0
:103C0C000AD0C41C24F00304A04207D0211A284671
:103C1C0000F09AFB013001D14FF0FF34204670BD0B
:103C2C00BC0200202DE9F843CD1C25F00305083516
:103C3C000C2D38BF0C25002D074601DBA94205D9F8
:103C4C000C2300263B603046BDE8F883DFF8D080BB
:103C5C0000F068F8D8F800301C465CBB29463846A2
:103C6C00FFF7C0FF431C044655D1D8F80040264648
:103C7C00002E45D1002C48D023683146384604EB41
:103C8C00030900F061FB81453FD1216838466D1A6C
:103C9C002946FFF7A7FF013037D023682B44236058
:103CAC00D8F80030002B38D05A68A2422BD1002211
:103CBC005A600FE02268521B1FD40B2A17D96119C6
:103CCC00A342256018BF5960636808BFC8F800108C
:103CDC0062514B60384604F10B0600F029F826F0CF
:103CEC000706231DF21AAED09B1BA350ABE7A342D1
:103CFC006268DDD1C8F80020ECE723466468ACE7C5
:103D0C0034467668B4E71346CCE70C2338463B6060
:103D1C0000F00EF897E72560DCE75B60FFDE00BF84
:103D2C00B80200200148FFF713BF00BFB402002007
:103D3C000148FFF70EBF00BFB40200202DE9F04789
:103D4C001F468E688246BE420C4690460B682CD8A5
:103D5C008A8912F4906F26D06569096905EB4505CF
:103D6C00A3EB010905EBD5757B1C4B446D109D42F3
:103D7C0038BF1D46530527D52946FFF753FF064686
:103D8C0060B34A46216900F0FDFAA38923F49063DD
:103D9C0043F08003A38126614E4426603E46656154
:103DAC00A5EB0905A560BE4200D93E463246414608
:103DBC00206800F0AFFA0020A3689B1BA360236867
:103DCC0033442360BDE8F0872A4600F0E9FA064642
:103DDC000028E0D150462169FFF7BCFE0C23CAF83D
:103DEC000030A3894FF0FF3043F04003A381E9E793
:103DFC002DE9F04F98468B8907461B060D46144655
:103E0C009DB00ED50B6963B94021FFF70BFF2860FD
:103E1C00286120B90C233B604FF0FF30D0E04023E9
:103E2C006B610023099320238DF8293030234FF048
:103E3C000109CDF80C80DFF8A0818DF82A302346DB
:103E4C009A4613F8012B0AB1252AF9D1BAEB040BC7
:103E5C000BD05B46224629463846FFF76FFF0130F0
:103E6C0000F0A980099A5A4409929AF80030002B64
:103E7C0000F0A18000234FF0FF32CDE905230AF1B9
:103E8C00010A049307938DF853301A935446052274
:103E9C0014F8011B504800F067FA049AD8B9D00600
:103EAC0044BF20238DF85330110744BF2B238DF8CA
:103EBC0053309AF800302A2B15D0544600204FF07E
:103ECC000A0C079A214611F8013B303B092B4DD9BE
:103EDC00B0B1079214E0A0EB080309FA03F3134303
:103EEC00A2460493D2E7039B191D1B680391002B78
:103EFC00BBBF5B4242F0020207930793B8BF049228
:103F0C0023782E2B0CD163782A2B34D1039B0234CB
:103F1C001A1D1B680392002BB8BF4FF0FF3305939B
:103F2C00DFF8B8A003225046217800F01DFA38B112
:103F3C004022049BA0EB0A008240134301340493FB
:103F4C0014F8011B062226488DF8281000F00CFAF4
:103F5C00002838D0234B1BBB039B073323F00703EC
:103F6C0008330393099B3344099368E70C460120FB
:103F7C000CFB0232A6E700234FF00A0C1946013461
:103F8C000593204610F8012B303A092A03D9002B4F
:103F9C00C6D00591C4E7044601230CFB0121F0E7D0
:103FAC0003AB00932A4638460F4B04A9AFF30080AD
:103FBC00421C0646D6D1AB895B063FF52DAF09985E
:103FCC001DB0BDE8F08F03AB00932A463846064B74
:103FDC0004A900F07DF8EBE77A440008804400085F
:103FEC008444000800000000493D00082DE9F0471A
:103FFC00164699468A680B6907469342B8BF134622
:10400C00336091F843200C46DDF820800AB101336F
:10401C0033602368990642BF3368023333602568E6
:10402C0015F0060506D104F1190AE36832689B1AEB
:10403C00AB422BDC94F84320131E226818BF0123DB
:10404C00920630D44946384604F14302C047013049
:10405C0023D02368226903F00603042B14BF002528
:10406C0033684FF0000608BFE56804F11A0408BF76
:10407C00ED1A54F8123C08BF25EAE5759342C4BF0B
:10408C009B1AED18B5421AD1002008E001235246C4
:10409C0049463846C047013003D14FF0FF30BDE8E8
:1040AC00F0870135C1E73020E11881F843005A1C34
:1040BC0094F845102244023382F84310C2E70123DE
:1040CC00224649463846C0470130E6D00136D9E78A
:1040DC002DE9FF470F7E9146782F80460C469A4675
:1040EC000C9D01F1430207D8622F0AD8002F00F073
:1040FC00D580582F00F0C18004F1420584F842703D
:10410C003AE0A7F16303152BF6D801A151F823F07F
:10411C007541000889410008054100080541000867
:10412C0005410008054100088941000805410008C7
:10413C000541000805410008054100088F420008B0
:10414C00B541000849420008054100080541000836
:10415C00B142000805410008B541000805410008BE
:10416C0005410008514200082B681A1D1B682A6083
:10417C0004F1420584F842300123A0E020682B684A
:10418C00070603F10401296001D51E6803E0460609
:10419C00FBD5B3F90060002E03DA2D23764284F8A8
:1041AC0043300A23594812E02B682068191D2960F6
:1041BC00050601D51E6802E04106FBD51E886F2F4F
:1041CC000CBF08230A235148002184F8431065686A
:1041DC00002DA8BF2168A560A4BF21F004012160B7
:1041EC000EB9002D4BD01546B6FBF3F103FB11674E
:1041FC00C75D05F8017D3746BB420E46F4D9082B46
:10420C000BD12368DE0708D5236961689942DEBFAC
:10421C00302305F8013C05F1FF35521B22614B465A
:10422C0021464046CDF800A003AAFFF7DFFE01307F
:10423C004AD14FF0FF3004B0BDE8F087236843F05B
:10424C00200323607827324884F845702368296856
:10425C001F0651F8046B02D45F0648BFB6B2DF07E5
:10426C0048BF43F02003296048BF23601EB9236870
:10427C0023F0200323601023A6E72448E4E7154627
:10428C00BDE72B682668181D6169286035061B6818
:10429C0001D5196002E07006FBD519800023154684
:1042AC002361BCE72B6800211A1D2A601D68626817
:1042BC00284600F059F808B1401B60606368236120
:1042CC00002384F84330AAE72A464946404623692E
:1042DC00D0470130ADD023689B0713D4E068039B13
:1042EC009842B8BF1846A6E70123324649464046D5
:1042FC00D04701309DD00135E36803995B1AAB427E
:10430C00F2DCEBE7002504F11906F5E78B44000815
:10431C009C440008884210B501EB020402D9844287
:10432C00234607D8431EA14208D011F8012B03F8ED
:10433C00012FF8E7014602448A4200D110BD13F860
:10434C00014D02F8014DF7E738B50023054D044641
:10435C0008462B60FCF7AEFB431C02D12B6803B163
:10436C00236038BDB0020020034610B5C9B2024428
:10437C009342184601D1002003E0047801338C42AB
:10438C00F6D110BD0A44914200F1FF3300D17047C1
:10439C0010B511F8014B914203F8014FF9D110BD42
:1043AC002DE9F041804614460E4621B91146BDE870
:1043BC00F041FFF737BC2AB9FFF7CCFB254628465E
:1043CC00BDE8F08100F01BF88442074602D8B4EB3C
:1043DC00500F12D821464046FFF724FC0546002812
:1043EC00EDD0BC422246314628BF3A46FFF7CAFF01
:1043FC0031464046FFF7AEFBE1E73546DFE751F8C3
:10440C00043C181F002BBCBF0B58C0187047000091
:10441C00F8B500BFF8BC08BC9E467047F8B500BFA5
:08442C00F8BC08BC9E46704775
:10443400556E64657254657374000000783A2530D3
:10444400356400007A3A253035640000000000002D
:104454000000000001020304060708090000000030
:104464000102030402030405060708090A0B0C0DE4
:104474000E0F10100102232D302B2000686C4C000D
:104484006566674546470030313233343536373850
:1044940039414243444546003031323334353637AE
:0C44A40038396162636465660000000046
:0444B00031010008CE
:0444B4000D010008EE
:1044B8000000000000080140000000000008014062
:1044C800200000000008014010000000000000006B
:1044D80000000000000300000000000000000000D1
:1044E80000000000000000000000000000000000C4
:1044F80000000000000000000000000000000000B4
:1045080000000000000000000000000000000000A3
:104518000000000000000000000000000000000093
:1045280065060008A9060008ED06000800127A00D2
:1045380010000000010000000000000078010020C9
:10454800E0010020480200200000000000000000F8
:104558000000000000000000000000000000000053
:104568000000000000000000000000000000000043
:104578000000000000000000000000000000000033
:08458800000000008800002083
:0400000508000B39AB
:00000001FF
